:100000000C946E000C9496000C9496000C94960040
:100010000C9496000C9496000C9496000C94960008
:100020000C9496000C9496000C9496000C949600F8
:100030000C9496000C9496000C9496000C949600E8
:100040000C94E41D0C9496000C942C240C947A24AB
:100050000C9496000C9496000C9496000C949600C8
:100060000C940A080C9496007C3C3E5E2B3D3F2F7E
:100070005B5D3B2C2A225C0000000000240027006E
:100080002A0000000000250028002B0000000000CE
:1000900023002600290004040404040404040202CA
:1000A00002020202030303030303010204081020F7
:1000B0004080010204081020010204081020000002
:1000C0000007000201000003040600000000000019
:1000D000000019018106930AE625120111241FBEB2
:1000E000CFEFD8E0DEBFCDBF12E0A0E0B1E0E0EF9F
:1000F000F5E502C005900D92A032B107D9F716E0E0
:10010000A0E2B2E001C01D92AF34B107E1F710E008
:10011000CAEDD0E004C02297FE010E94E72AC23D4A
:10012000D107C9F70E9462210C94EB2A0C940000BD
:10013000FB01DC0104C08D910190801921F4415034
:100140005040C8F7881B990B0895FB01DC0102C0E1
:1001500001900D9241505040D8F70895FC018191D3
:10016000861721F08823D9F7992708953197CF0171
:100170000895FB01DC0101900D920020E1F7089544
:10018000FB01DC014150504048F001900D920020ED
:10019000C9F701C01D9241505040E0F70895FB019E
:1001A0009F01423074F0453264F4642F77270E9437
:1001B000942A805D8A330CF0895D8193CB0100978E
:1001C000A1F71082C9010C94E500DC01FC01672F46
:1001D00071917723E1F7329704C07C916D9370831E
:1001E0006291AE17BF07C8F308958130910561F49D
:1001F0006F5F7F4FB1F48EE292E00E94230D89E49D
:1002000092E00E94230D0895892B59F46F5F7F4F70
:1002100041F489E492E00E94360D8EE292E00E9461
:10022000360D089580E090E06FEF7FEF0E94F500BB
:10023000089581E090E06FEF7FEF0E94F500089550
:100240000F931F93BC010CEC12E0C8010E9416062C
:10025000C80160E10E94C906C8010E940C071F91F5
:100260000F9108958F929F92AF92BF92CF92DF929B
:10027000EF92FF920F931F93DF93CF93CDB7DEB72B
:100280008C01F62E6A018DB69EB6CA01880F991FA1
:100290002DB73EB7281B390B0FB6F8943EBF0FBEE3
:1002A0002DBFADB6BEB60894A11CB11C8CEC92E07B
:1002B000B8010E9416068CEC92E06F2D0E94C906D0
:1002C0008CEC92E00E940C078CEC92E0B8010E944A
:1002D00016068CEC92E0B801A6010E941D07EE24E0
:1002E000FF240EC08CEC92E00E942906F801819355
:1002F00091938F010894E11CF11CCE14DF0494F754
:100300008CEC92E00E942006892B31F08701000FCF
:10031000111F0A0D1B1DF1CF8CEC92E00E940C07FF
:10032000C5010FB6F8949EBE0FBE8DBECF91DF9172
:100330001F910F91FF90EF90DF90CF90BF90AF9003
:100340009F908F9008956091DA01862F9091DB0144
:1003500042E050E00E943201FC01708160E02281A5
:100360003381622B732B882777FD8095982F0E940D
:100370005A292AE939E949E95FE30E94BF280E9426
:100380002729CB0108952F923F924F925F926F924F
:100390007F928F929F92AF92BF92CF92DF92EF9215
:1003A000FF920F931F93DF93CF93CDB7DEB7C45463
:1003B000D0400FB6F894DEBF0FBECDBF01E010E015
:1003C0001093650200936402109367020093660223
:1003D000109369020093680289E296E060E071E0A0
:1003E0000E94E7228DE292E00E946D0A882359F470
:1003F00089E296E065E071E00E94E72210936702CF
:10040000009366020AC089E296E06CE071E00E9407
:10041000E722109267021092660289E296E060E19C
:1004200071E00E94E72280E292E066E10E94D70537
:100430002FEF8F3F920789F0009721F08E5F9F4F3B
:10044000F1F414C089E296E06CE071E00E94E722CA
:1004500010926902109268021EC089E296E067E17C
:1004600071E00E94E72281E090E011C089E296E00D
:1004700067E271E00E94E72282E090E008C089E232
:1004800096E067E371E00E94E72283E090E09093BA
:100490006902809368028EE00E94C21D00D000D0E5
:1004A000AA2797FDA095BA2F01E0602E712C812C10
:1004B000912CEDB7FEB76182728283829482BC0177
:1004C000CD0120E030E040E050E01FEFE12E13E0EE
:1004D000F12E012D112DBFEFAB2EB3E0BB2EC12CA1
:1004E000D12C0E9419211B012C010F900F900F900D
:1004F0000F908FE00E94C21D00D000D0AA2797FD68
:10050000A095BA2FEDB7FEB7618272828382948282
:10051000BC01CD0120E030E040E050E00E94192114
:100520004B015C010F900F900F900F900E94A30160
:100530002C01CE0101960E94BB09BE806D807C809B
:10054000CB80DA80098189E296E066E471E00E945E
:10055000E72210E00053184F89E296E0B8014AE024
:1005600050E00E94522210936B0200936A0289E2CB
:1005700096E06AE30E949B2189E296E06D2D4AE0B5
:1005800050E00E946322ACE6EA2EA2E0FA2ED0925E
:100590006C0210926D0289E296E06AE30E949B2150
:1005A00089E296E06C2D4AE050E00E946322C092FE
:1005B0006E02F701138289E296E060E20E949B21BD
:1005C00089E296E0672D4AE050E00E946322709233
:1005D0007002F701158289E296E06AE30E949B218E
:1005E00089E296E0662D4AE050E00E946322609224
:1005F0007202F701178289E296E06AE30E949B216A
:1006000089E296E06B2D4AE050E00E946322B092AE
:100610007402F701118689E296E06CE471E00E94B1
:10062000E7224091200250912102609122027091B4
:10063000230289E296E021E030E00E94CE2360911F
:1006400020027091210280912202909123020E9447
:100650002C29709377026093760289E296E062E536
:1006600071E00E94E722409124025091250260919E
:1006700026027091270289E296E021E030E00E9494
:10068000CE236091240270912502809126029091E0
:1006900027020E942C29709379026093780289E2E4
:1006A00096E069E571E00E94E72289E296E0B101F7
:1006B0004AE050E00E94B52230927D0220927C02F6
:1006C00089E296E060E671E00E94E72289E296E026
:1006D000B4014AE050E00E94B52290927F028092DD
:1006E0007E0289E296E067E671E00E94E72289E2F5
:1006F00096E0B2014AE050E00E94C82210928102C6
:10070000109280028E01095F1F4FC8016FE671E0F1
:100710000E940B2788EF9FEFE80EF91EFEE0CF2E18
:10072000D12CCC0EDD1EB02E012FF70161917191FD
:100730007F01C6014AE00E943E278B2D902FB60113
:100740000E94D026C6010E946F278B2D902F6CE24D
:100750000E94BD26FAE6EF16F2E0FF0631F78701A8
:10076000E5E1EE2EF12CEC0EFD1E77E0C72ED12C2C
:10077000CC0EDD1EF801619171918F01C7014AE035
:100780000E943E27C601B7010E94D026C7010E94E1
:100790006F27C6016FE20E94BD26F2E000371F07F7
:1007A00049F76B857C8561507040C60140E00E942E
:1007B0003C26C6016CE20E94BD266CE1E62EF12CBF
:1007C000EC0EFD1E57E0C52ED12CCC0EDD1EF8011F
:1007D000619171918F01C7014AE00E943E27C601D5
:1007E000B7010E94D026C7010E946F27C6016FE2A1
:1007F0000E94BD26F2E006371F0749F76B857C850E
:1008000061507040C60140E00E943C26C6016CE287
:100810000E94BD2643E2E42EF12CEC0EFD1E37E0D3
:10082000C32ED12CCC0EDD1EF801619171918F0188
:10083000C7014AE00E943E27C601B7010E94D026A8
:10084000C7010E946F27C6016CE20E94BD26F2E03C
:1008500000381F0749F789E296E00E94A321CE01E4
:100860008A9666E473E040E751E023E10E94D30BEF
:100870008CA59DA590934C0280934B028EA59FA5BD
:10088000A8A9B9A980934D0290934E02A0934F025C
:10089000B09350028AA99BA9ACA9BDA9809351022B
:1008A00090935202A0935302B0935402A5E5B2E094
:1008B000FE01F6968DE001900D928150E1F7FE0168
:1008C000ED5BFF4F80819181909363028093620280
:1008D000CE018A960E94360D89E492E00E94780D3E
:1008E000882361F089E492E0BE01695F7F4F0E9436
:1008F000172489E296E069E771E004C089E296E096
:100900006EE771E00E94D1238E01095F1F4F89E2DB
:1009100096E0B8010E94172460ED77E080E090E057
:100920000E94601E89E492E00E94850DC8010E9429
:100930006F27CC5BDF4F0FB6F894DEBF0FBECDBF85
:10094000CF91DF911F910F91FF90EF90DF90CF90AB
:10095000BF90AF909F908F907F906F905F904F90DF
:100960003F902F900895DF93CF93CDB7DEB76B976D
:100970000FB6F894DEBF0FBECDBF8CEC92E060E8FE
:1009800075E20E9440078091DA019091DB010E949C
:10099000200168EC70E080E090E00E94601E0E9400
:1009A000B90989E296E040E855E260E070E00E9413
:1009B000B5248AE061E00E94FE1E86E493E06AE0CE
:1009C0000E94F80C882369F489E296E067E871E0F8
:1009D0000E94D12381E090E09093650280936402AD
:1009E0004AC089E296E06EE971E00E94D123CE010F
:1009F000019666E473E040E751E027E10E94D30BE3
:100A00008B819C8190934C0280934B028D819E81BF
:100A1000AF81B88580934D0290934E02A0934F0210
:100A2000B093500289859A85AB85BC85809351022D
:100A300090935202A0935302B0935402A5E5B2E002
:100A4000FE013D968DE001900D928150E1F78A8D77
:100A50009B8D9093630280936202CE0101960E9467
:100A6000360D89E492E00E94850D89E296E063EB01
:100A700071E00E94D1236B960FB6F894DEBF0FBED3
:100A8000CDBFCF91DF9108958F929F92AF92BF9289
:100A9000CF92DF92EF92FF920F931F93CF93DF934A
:100AA0006C01B62EE42EFC01108611861286138688
:100AB0001486862F61E00E94FE1E8B2D60E00E944E
:100AC0003D1FFF2400E010E0C801B7010E94601E36
:100AD0008B2D61E00E943D1F88E290E00E94B91ECC
:100AE0008B2D60E00E94FE1EC0E9D1E002C021977C
:100AF00039F18B2D0E94911F892BC9F3C0E9D1E0F8
:100B000002C02197E9F08B2D0E94911F0197C9F334
:100B100003C0219739F414C030E8A32E8824992407
:100B2000C0E9D1E08B2D0E94911F892B91F30E9487
:100B30003A1E7B018C01C0E9D1E005C0219719F470
:100B40002EEF3FEF26C08B2D0E94911F0197B1F32E
:100B50000E943A1E6E197F09800B910B6932710554
:100B60008105910530F0F601E80DF11D80858A2997
:100B700080878A2D90E095958795A82E882319F473
:100B8000839480E8A82E9394F8E29F1649F620E01B
:100B900030E0C901DF91CF911F910F91FF90EF904D
:100BA000DF90CF90BF90AF909F908F900895EF927D
:100BB000FF920F931F93CF93DF93EC0142E10E94CA
:100BC00044057C01009769F080E090ECA9E7B4EC63
:100BD00088839983AA83BB838C839D83AE83BF83E1
:100BE0001DC00885602F70E080E090E00E945829C9
:100BF000688379838A839B831A85612F70E080E004
:100C000090E00E9458296C837D838E839F83100F10
:100C10008C85811719F0EE24EA94FE2CC701DF9130
:100C2000CF911F910F91FF90EF90089581E08093F5
:100C3000C7026093A4021092C5021092C6020895E2
:100C40002091A30230E08091A202281B3109C90142
:100C500008954091A2028091A302481718F02FEF47
:100C60003FEF0AC0E42FF0E0EE57FD4F8081282FC0
:100C700030E04F5F4093A202C9010895E091A202C3
:100C80008091A302E81718F0EFEFFFEF06C0F0E045
:100C9000EE57FD4F8081E82FF0E0CF0108950895D1
:100CA000AC012091CA023091CB0221153105E1F04F
:100CB0009091A2028091A3029817B0F090E008C032
:100CC000FA01EA0FFB1F8081AE57BD4F8C939F5FE7
:100CD000A92FB0E0A617B7079CF31092A202609369
:100CE000A302CB01F90109950895E091C802F091A2
:100CF000C902309729F01092C5021092C6020995D8
:100D000008951092CF021092CE0288EE93E0A0E0F8
:100D1000B0E08093D0029093D102A093D202B0931E
:100D2000D3028BEE91E09093CD028093CC02089594
:100D3000CF92DF92EF92FF920F931F93CF93DF93A7
:100D40007C016B018A018091C7028823A1F0C0E079
:100D5000D0E00DC0D701ED91FC91D601AC0FBD1FC5
:100D60000190F081E02DC7016C9109952196C01783
:100D7000D10780F304C0CB01642F0E94E507C801AE
:100D8000DF91CF911F910F91FF90EF90DF90CF9067
:100D90000895DF93CF930F92CDB7DEB7FC0169833F
:100DA0008091C7028823C9F08091C602803238F052
:100DB00081E090E09383828320E030E015C0809151
:100DC000C502E82FF0E0EB55FD4F998190838F5FCE
:100DD0008093C5028093C60205C0CE01019661E0F2
:100DE0000E94E50721E030E0C9010F90CF91DF912B
:100DF00008950F93062F8091A40265EA72E0409156
:100E0000C60221E00E9490071092C5021092C6020D
:100E10001092C7020F91089561E00E94F9060895AB
:100E2000413208F040E2862F62E872E00E944707F4
:100E30001092A2028093A302089521E00E9410075D
:100E400008951092A2021092A3021092C50210926D
:100E5000C6020E949B0908950F931F938C01862F51
:100E60000E94430785E796E00E94050880E596E02A
:100E70000E940008C8010E9421071F910F91089548
:100E80000E942C070895880F8093BA000895382F88
:100E9000413210F040E042C08091D8028823E1F74F
:100EA00091E09093D8022093DA028FEF809345036C
:100EB000109200034150409301034F5F9093D90279
:100EC0008091D902330F832B8093D9028091DB026A
:100ED000813041F41092DB028091D9028093BB00F3
:100EE00085EC01C085EE8093BC008091D8028130F2
:100EF000E1F380910003841710F44091000320E097
:100F000030E00AC0FB01E20FF31FD901A052BD4F30
:100F10008C9180832F5F3F4F2417A0F3842F089577
:100F20000F931F93582F122F413210F081E04AC0C7
:100F30008091D8028823E1F782E08093D802009361
:100F4000DA028FEF80934503109200034093010370
:100F5000A0EEB2E0FB0102C081918D938E2F861B23
:100F60008417D0F31092D9028091D902550F852BA6
:100F70008093D9028091DB02813041F41092DB0230
:100F80008091D9028093BB0085EC01C085EE8093EF
:100F9000BC00112321F08091D8028230E1F38091CE
:100FA00045038F3F11F480E00DC0809145038032EE
:100FB00011F482E007C080914503803311F084E092
:100FC00001C083E01F910F910895482F613210F006
:100FD00081E008958091D802843011F082E0089574
:100FE00060932303A2E0B3E0842F9C01F90102C0C7
:100FF00081918D938E2F841B8617D0F380E0089506
:101000009093DF028093DE0208959093DD02809337
:10101000DC0208951F920F920FB60F9211242F93A6
:101020003F934F935F936F937F938F939F93AF9370
:10103000BF93EF93FF938091B90090E0887F907009
:101040008036910509F4F2C081369105CCF58832DD
:10105000910509F47BC089329105B4F48031910582
:1010600009F46FC0813191053CF4009709F447C140
:10107000089709F04FC165C08831910509F466C031
:10108000809709F047C182C08034910509F4A4C05B
:101090008134910544F48033910509F482C0C897E6
:1010A00009F038C189C08035910509F489C08835B7
:1010B000910509F496C08834910509F02BC1AEC0A2
:1010C0008839910509F413C189399105ECF4883701
:1010D000910509F4ABC0893791054CF48836910528
:1010E00009F4A4C08037910509F014C19FC0883865
:1010F000910509F4FCC08039910509F49DC0803840
:10110000910509F007C198C0803B910509F4C6C05C
:10111000813B91054CF4803A910509F49FC0883ACF
:10112000910509F0F7C0BAC0803C910509F4E3C00D
:10113000883C910509F4DFC0883B910509F0EAC0BD
:10114000C2C08091D9028093BB00CFC090910003B0
:1011500080910103981768F490910003E92FF0E063
:10116000E052FD4F80818093BB009F5F909300030E
:10117000BCC08091DA02882309F44BC085ED8093CE
:10118000BC008091BC0084FDFCCFC2C080E2809393
:10119000450385ED8093BC008091BC0084FDFCCFAD
:1011A000B7C080E38093450385ED8093BC008091B8
:1011B000BC0084FDFCCFACC088E3809345039BC09A
:1011C000809100039091BB00E82FF0E0E052FD4FCA
:1011D00090838F5F809300039091000380910103BF
:1011E00082C0809100039091BB00E82FF0E0E052B4
:1011F000FD4F90838F5F809300038091DA028823F4
:1012000041F085ED8093BC008091BC0084FDFCCF53
:101210007FC081E08093DB0284EA6EC085ED80931D
:10122000BC008091BC0084FDFCCF72C083E0809341
:10123000D8021092440359C080914403803208F0D0
:1012400056C0809144039091BB00E82FF0E0EC5D24
:10125000FC4F90838F5F8093440347C08091440389
:10126000803230F4E0914403F0E0EC5DFC4F1082FA
:1012700085ED8093BC008091BC0084FDFCCF109272
:10128000D80260914403E091DE02F091DF0284E233
:1012900093E070E00995109244032DC084E08093A0
:1012A000D8021092220310922303E091DC02F09105
:1012B000DD02099580912303882329F481E080933E
:1012C00023031092020390912203E92FF0E0EE5FD6
:1012D000FC4F80818093BB009F5F9093220390918D
:1012E000220380912303981710F485EC01C085E850
:1012F0008093BC000FC085EC8093BC0009C01092A5
:10130000450385ED8093BC008091BC0084FDFCCF3B
:101310001092D802FF91EF91BF91AF919F918F9161
:101320007F916F915F914F913F912F910F900FBEE1
:101330000F901F9018951092D80281E08093DA02E6
:101340001092DB0282E161E00E943D1F83E161E0D7
:101350000E943D1FE9EBF0E080818E7F80838081D9
:101360008D7F808388E48093B80085E48093BC00FF
:10137000089581E008959F92AF92BF92CF92DF923D
:10138000EF92FF920F931F93A82E992E0CEC12E070
:10139000C80168E670E00E941606C80160E00E947D
:1013A000C906C8010E940C07C80168E670E047E062
:1013B00050E00E941D07C8010E9429069FE7B92E30
:1013C000B822C8010E942906C82EC8010E94290619
:1013D000D82EC8010E942906C8010E942906E82EBD
:1013E000C8010E942906F82EC8010E942906282F4C
:1013F00030E0B4E035952795BA95E1F74AEF5FEF15
:10140000B901649F9001659F300D749F300D1124C8
:10141000820FEA2DF92D80838F2D90E0A4E0959521
:101420008795AA95E1F79C01249FC001259F900D07
:10143000349F900D1124F80EF1828E2D90E074E00F
:10144000959587957A95E1F7BC01649FC001659FEA
:10145000900D749F900D1124E80EE2828D2D90E086
:1014600064E0959587956A95E1F79C01249FC001FA
:10147000259F900D349F900D1124D80ED3828C2D72
:1014800090E034E0959587953A95E1F7BC01649F2B
:10149000C001659F900D749F900D1124C80EC482E9
:1014A0008B2D90E024E0959587952A95E1F79C0196
:1014B000249FC001259F900D349F900D1124B80EDC
:1014C000B5828A2D992D1F910F91FF90EF90DF909B
:1014D000CF90BF90AF909F9008958CEC92E068E61B
:1014E00070E00E9416068CEC92E060E00E94C90653
:1014F0008CEC92E00E940C078CEC92E068E670E0C5
:1015000041E050E00E941D078CEC92E00E94290609
:1015100020E090E0880F892F881F990B892B09F410
:1015200021E0822F089510924B0310924C031092E9
:101530004F031092510382E090E0A0E0B0E080936E
:10154000520390935303A0935403B0935503109206
:10155000690310927303109272038BE092E09093F0
:101560007103809370031092750308952F923F9238
:101570004F925F926F927F928F929F92AF92BF92A3
:10158000CF92DF92EF92FF920F931F93DF93CF934F
:10159000CDB7DEB7C754D0400FB6F894DEBF0FBE4C
:1015A000CDBF582E492EFB013A01190184A595A5FE
:1015B000998B888B2BE032E03F872E8786A58A8B1C
:1015C00087A58B8B80A991A9A2A9B3A98C8B9D8B90
:1015D000AE8BBF8B84A995A9A6A9B7A9888F998F2F
:1015E000AA8FBB8F80AD91ADA2ADB3AD8C8F9D8F17
:1015F000AE8FBF8F84AD88A3FD9681919191A1910B
:10160000B19189A39AA3ABA3BCA381919191A1911C
:10161000B1918DA39EA3AFA3B8A7808191819AA712
:1016200089A71EA61DA63CA72BA718AA7A018E0182
:10163000025F1F4F3BE2A32EB12CAC0EBD1E4E012C
:101640000894811C911C35C0D7018C918F3221F4F4
:101650000894E11CF11C2DC0422F4E194D3008F0AA
:101660004CE0C42EDD24C401B701A6010E94C000D5
:10167000F401EC0DFD1D1082C5010E947217C50119
:10168000B801A40121E00E94BB1C882351F4E52D80
:10169000F42D138212828BE092E091838083158275
:1016A00066C0EC0CFD1CC8010E947217C5015801F0
:1016B0008C01C7016FE270E00E94AE009C010097B0
:1016C00019F6E618F708F101F182E082E52DF42D14
:1016D000D80112968D919C911397938382838BE00E
:1016E00092E09183808314968C911497848315964D
:1016F0008C911597858316962D913D914D915C9116
:10170000199726833783408751871A962D913D91EB
:101710004D915C911D9722873387448755871E968C
:101720002D913D914D915C91519726873787408B44
:10173000518B52968C915297828B53962D913D915D
:101740004D915C915697238B348B458B568B5796D6
:101750002D913D914D915C915A97278B308F418F00
:10176000528F5B968D919C915C97948F838F852D82
:10177000942DC95BDF4F0FB6F894DEBF0FBECDBF0F
:10178000CF91DF911F910F91FF90EF90DF90CF905D
:10179000BF90AF909F908F907F906F905F904F9091
:1017A0003F902F9008959F92AF92BF92CF92DF9279
:1017B000EF92FF920F931F93DF93CF93CDB7DEB7D6
:1017C000C657D0400FB6F894DEBF0FBECDBFC82EAF
:1017D000992E8A01D22E43E0A42EB12CAC0EBD1E50
:1017E000C501A8019E012F5F3F4F0E94B60AE98004
:1017F000FA80E00EF11EF70180814BE052E028856F
:10180000882309F03FC08D819E819BA38AA359A3A1
:1018100048A38F818CA32DA389859A85AB85BC8530
:101820008EA39FA3A8A7B9A78D859E85AF85B889EC
:101830008AA79BA7ACA7BDA789899A89AB89BC89D0
:101840008EA79FA7A8ABB9AB8D898AAB8E899F89DC
:10185000A88DB98D8BAB9CABADABBEAB8A8D9B8D90
:10186000AC8DBD8D8FAB98AFA9AFBAAF8E8D9F8D6C
:101870009CAF8BAF8C2D992DBE01605E7F4F4AECE3
:1018800051E09FC0FE01FF96118210825EAF4DAF06
:10189000FE01EE5BFF4F10822223A9F02250CE0101
:1018A000CD96223048F460E773E0A7012D2D0E9409
:1018B000BB1C882381F407C0B501A7012D2D0E9410
:1018C000BB1C882329F48C2D992D0E94230D7BC0ED
:1018D000C5010E947217F6E0DF2259F0FE01E05BBD
:1018E000FF4F4081518162817381CE01CD960E946C
:1018F00062169E01265A3F4FFE01FF96808191811C
:10190000F901938382838BE092E091838083FE01CF
:10191000EF5BFF4F8081F9018483FE01EE5BFF4F97
:101920008081F9018583FE01ED5BFF4F808191810C
:10193000A281B381F90186839783A087B187FE01D5
:10194000E95BFF4F80819181A281B381F901828798
:101950009387A487B587FE01E55BFF4F8081918166
:10196000A281B381F90186879787A08BB18BFE0195
:10197000E15BFF4F8081F901828BFE01E05BFF4F4D
:1019800080819181A281B381F901838B948BA58B96
:10199000B68BFE01EC5AFF4F80819181A281B38109
:1019A000F901878B908FA18FB28FFE01E85AFF4F0C
:1019B00080819181F901948F838F8C2D992DB901AC
:1019C000A7010E94160E8C2D992DCA58DF4F0FB615
:1019D000F894DEBF0FBECDBFCF91DF911F910F9165
:1019E000FF90EF90DF90CF90BF90AF909F900895C1
:1019F0000F931F93CF93DF93EC01462F61E00E947A
:101A000089108823D1F08E01045F1F4FC801BE01E9
:101A100041E00E94F611882339F4C801BE0140E07C
:101A20000E94F611882349F0CE018A96B8010E94DF
:101A3000A819882319F081E001C080E0DF91CF91DF
:101A40001F910F910895FC011382128288EE93E09A
:101A5000A0E0B0E084839583A683B7838BEF91E009
:101A600091838083128E118E14860895FC018BEF72
:101A700091E0918380830895DF93CF930F92CDB748
:101A8000DEB7FC016983A081B18112962D913C9152
:101A90001397BE016F5F7F4F41E050E0F901099558
:101AA0000F90CF91DF910895DC015996ED91FC9153
:101AB0005A97309719F420E030E018C02389348910
:101AC0004589568982859385A485B585281B390B60
:101AD0004A0B5B0B2030B0E83B07B0E04B07B0E0AF
:101AE0005B0720F02FEF3FE740E050E0C901089589
:101AF000DC015996ED91FC915A97309711F480E0F2
:101B000008958581811181E00895CF93DF93EC01E1
:101B1000898D9A8D009741F00E947217898D9A8D58
:101B20000E9481201A8E198EDF91CF910895FC01B9
:101B3000818D928D009711F00E9428170895DF93F0
:101B4000CF930F92CDB7DEB7FC01818D928D0097B8
:101B500049F0BE016F5F7F4F41E050E00E9449189D
:101B6000019719F02FEF3FEF03C08981282F30E054
:101B7000C9010F90CF91DF910895EF92FF920F93DB
:101B80001F93DF93CF930F92CDB7DEB77C01DC01BB
:101B900059968D919C915A97009719F400E010E0A6
:101BA0001FC0BE016F5F7F4F41E050E00E944918A7
:101BB000019719F00FEF1FEF13C08981082F10E074
:101BC000D7015996ED91FC915A97428553856485CA
:101BD00075854150504060407040CF010E946216B0
:101BE000C8010F90CF91DF911F910F91FF90EF905F
:101BF0000895CF93DF93EC01E98DFA8D309761F072
:101C000013821282CF010E948E1A9C01E98DFA8DF7
:101C100082819381892B31F081E090E09B838A83DC
:101C200020E030E0C901DF91CF910895EF92FF925B
:101C30000F931F93CF93DF93EC01F62EE72E8A01CB
:101C40001B821A8288EE93E0A0E0B0E08C839D8333
:101C5000AE83BF838BEF91E0998388838DE190E021
:101C60000E94E41F9A8F898F009791F0DC018F2DDD
:101C70009E2D9C01F9018DE101900D928150E1F7BB
:101C8000CE010C96B8014CE050E00E94C000188EC6
:101C9000DF91CF911F910F91FF90EF900895FC017C
:101CA000673020F086E1858380E00895262F30E0BC
:101CB00060FD02C0663019F48DB58E7F02C08DB50F
:101CC00081608DBD8CB58C7F8CBD4CB522FD02C072
:101CD00090E001C092E036952795822F8170842B89
:101CE000892B8CBD81E00895FF920F931F93CF93B2
:101CF000DF938B010E942C1EEB01FF24FA94FEBCA3
:101D00000DB407FEFDCF8EB58F3F11F481E008C002
:101D10000E942C1E6C1B7D0B6017710780F380E006
:101D2000DF91CF911F910F91FF900895FC01848165
:101D300060E00E943D1F0895FC01848161E00E94E3
:101D40003D1F0895DC016EBDFA0120E030E00DB4C6
:101D500007FEFDCF80818EBD0DB407FEFDCF8181D2
:101D60008EBD2E5F3F4F329682E02030380779F7E4
:101D70000DB407FEFDCF8FEF8EBD0DB407FEFDCF76
:101D80008FEF8EBD0DB407FEFDCF8FEF8EBD0DB46E
:101D900007FEFDCF8EB51A968C931A978F718530FA
:101DA00011F481E0089581E115968C931597CD018A
:101DB0000E949C0E80E00895FF920F931F93CF9393
:101DC000DF93EC010E942C1E8B01FF24FA9409C0C2
:101DD0000E942C1E601B710B6D52714010F08FE041
:101DE0000DC0FEBC0DB407FEFDCF8EB58A878F3FB8
:101DF00079F38E3F11F481E006C08DE08D83CE0132
:101E00000E949C0E80E0DF91CF911F910F91FF9077
:101E10000895CF93DF93EC018E818823D1F08FEF6B
:101E20008EBD2F8138854FEF04C00DB407FEFDCF66
:101E30004EBD2F5F3F4FC901019781509240A8F3DB
:101E400038872F830DB407FEFDCFCE010E949C0E74
:101E50001E82DF91CF910895DF92EF92FF920F9350
:101E60001F93CF93DF93EC01D62E79018A010E9454
:101E7000090FCE010E94960ECE016CE271E00E9425
:101E8000740E8D2D80648EBD0DB407FEFDCF28E14C
:101E900030E0D801C701022E04C0B695A7959795EA
:101EA00087950A94D2F78EBD0DB407FEFDCF28505A
:101EB00030408FEF283F380761F7DD2011F485E9C6
:101EC00006C088E0D81611F487E801C08FEF8EBDF8
:101ED0000DB407FEFDCF90E02FEF2EBD0DB407FE31
:101EE000FDCF8EB587FF02C09150B9F78A87DF9189
:101EF000CF911F910F91FF90EF90DF900895CF92B7
:101F0000DF92EF92FF920F931F93CF93DF93EC0139
:101F10007A018B016901411551056105710511F4C3
:101F200082E137C08B85833039F029E0EE0CFF1C4D
:101F3000001F111F2A95D1F7CE0168E1A801970172
:101F40000E942C0F882311F084E023C0CE016EEF95
:101F5000A6010E94A20E8823E9F0CE0168E572E096
:101F60000E94740E882311F485E113C0CE016DE048
:101F700020E030E040E050E00E942C0F882341F444
:101F80008FEF8EBD0DB407FEFDCF8EB5882379F09F
:101F900084E18D83CE010E949C0E80E0DF91CF9181
:101FA0001F910F91FF90EF90DF90CF900895CE0199
:101FB0000E949C0E81E0F2CF8F929F92AF92BF92CF
:101FC000CF92DF92EF92FF920F931F93CF93DF9305
:101FD000EC015A016B0149010115110509F47BC09F
:101FE000C801820F931F8150924008F06FC08E810C
:101FF000882371F088819981AA81BB81481759078C
:102000006A077B0729F48F8198858816990618F549
:10201000A882B982CA82DB828B85833039F069E07D
:10202000AA0CBB1CCC1CDD1C6A95D1F7CE0161E16A
:10203000A60195010E942C0F882319F083E08D835F
:1020400045C0CE010E94DC0E882309F43FC01886EB
:102050001F8281E08E838FEF8EBD8F8198852FEF59
:1020600005C00DB407FEFDCF2EBD0196881599055C
:10207000C0F398878F83D801119720E030E09FEF5D
:102080000BC00DB407FEFDCF8EB5F701E20FF31FB5
:1020900080839EBD2F5F3F4F2A173B0790F30DB4FF
:1020A00007FEFDCF8EB5AE0DBF1D8C932F813885F9
:1020B000200F311F38872F838985882319F02050FE
:1020C000324048F0CE010E94090F05C0CE010E94A7
:1020D0009C0E80E001C081E0DF91CF911F910F91B4
:1020E000FF90EF90DF90CF90BF90AF909F908F9038
:1020F0000895EF92FF920F931F93790120E030E053
:1021000000E012E00E94DC0F1F910F91FF90EF9012
:102110000895BF92CF92DF92EF92FF920F931F9399
:10212000CF93DF93EC01B62E1B8619861E821D828B
:102130004C830E942C1E6B018C8161E00E94FE1E6C
:10214000CE010E949C0E8CE060E00E94FE1E8BE09F
:1021500061E00E94FE1E8DE061E00E94FE1E8AE0AA
:1021600061E00E94FE1E8AE061E00E943D1F83E55F
:102170008CBD8DB58E7F8DBD80E09FEF9EBD0DB473
:1021800007FEFDCF8F5F8A30C9F7CE010E94960E01
:1021900009C00E942C1E6C197D09615D774010F00A
:1021A00081E05EC0CE0160E020E030E040E050E041
:1021B0000E942C0F182F8A87813059F7CE0168E0D2
:1021C0002AEA31E040E050E00E942C0F82FF02C07A
:1021D0001B8711C080E02FEF2EBD0DB407FEFDCF91
:1021E0009EB58F5F8430C1F79A879A3A11F082E0EA
:1021F00037C082E08B878B85823021F0EE24FF246C
:1022000087010FC0E12CF12C012DF0E41F2F09C034
:102210000E942C1E6C197D09615D774010F088E0EA
:102220001FC0CE0167E320E030E040E050E00E94B4
:102230002C0FCE0169E2A80197010E942C0F8A871A
:10224000882331F78B85823031F5CE016AE320E0B7
:1022500030E040E050E00E942C0F882339F086E007
:102260008D83CE010E949C0E80E01CC08FEF8EBD3E
:102270000DB407FEFDCF8EB5807C803C11F483E069
:102280008B8780E09FEF9EBD0DB407FEFDCF2EB57E
:102290008F5F8330C1F7CE010E949C0ECE016B2D63
:1022A0000E944F0EDF91CF911F910F91FF90EF9001
:1022B000DF90CF90BF90089580919105882399F188
:1022C0004091DC015091DD016091DE017091DF01F0
:1022D00080918F05909190052FE833E00E947F0F49
:1022E000882319F1409192055091930560919405CE
:1022F00070919505411551056105710591F0809129
:102300008F05909190052FE833E00E947F0F88237E
:1023100061F010929205109293051092940510921C
:1023200095051092910581E0089580E00895EF925F
:10233000FF920F931F937B018C010E945C118823F5
:10234000A9F0EFE8F3E0119285E0EF38F807D9F74C
:10235000E092DC01F092DD010093DE011093DF01D9
:102360008091910581608093910581E01F910F918B
:10237000FF90EF900895DF92EF92FF920F931F93DB
:102380007B018C01D42E8091DC019091DD01A09124
:10239000DE01B091DF018E159F05A007B107C1F0E6
:1023A0000E945C118823D9F080918F05909190054F
:1023B000B801A7012FE833E00E947910882379F053
:1023C000E092DC01F092DD010093DE011093DF0169
:1023D000809191058D298093910581E001C080E075
:1023E0001F910F91FF90EF90DF9008958F929F9231
:1023F000AF92BF92CF92DF92EF92FF920F931F9313
:10240000CF93DF936C01142F7093900560938F0529
:10241000442321F488249924540140C0453008F015
:102420001CC160E070E080E090E040E00E94BB11E1
:10243000882309F412C1C12FD0E02197FE0174E076
:10244000EE0FFF1F7A95E1F7E157FC4FE254FE4F84
:102450008081EE5BF14090E08F779070892B09F0DE
:10246000FCC0E653FE4F80819181A281B381843606
:102470009105A105B10508F4F0C064E0CC0FDD1FA3
:102480006A95E1F7CB5ADA4F88809980AA80BB80A1
:1024900081149104A104B10409F4DFC0C501B401A1
:1024A00040E00E94BB11882309F4D7C080919A03B1
:1024B00090919B038050924009F0CFC020919F03E0
:1024C000222309F4CAC080919D0390919E03892B19
:1024D00009F4C3C080919C03882309F4BEC0F601AF
:1024E000228B80919C038483158661E070E007C095
:1024F0004F5FF60145874150483008F0AEC0F60105
:102500004585848190E09B01042E02C0220F331F79
:102510000A94E2F78217930759F72091A5033091A7
:10252000A6032115310519F040E050E008C02091C4
:10253000B3033091B4034091B5035091B603F60153
:102540002583368347835087E0909D03F0909E0358
:1025500000E010E0E80CF91C0A1D1B1DE38AF48A58
:10256000058B168B8091A0039091A103918F808F92
:1025700060919F0370E080E090E00E94752A6E0DEC
:102580007F1D801F911FF601628F738F848F958F3F
:102590002091A0033091A10355E0220F331F5A95DB
:1025A000E1F721503E4F232F3327269540E050E09E
:1025B000260F371F481F591F26873787408B518B9F
:1025C0008091A2039091A303009719F0A0E0B0E0DE
:1025D00008C08091AF039091B003A091B103B09176
:1025E000B20385017401E21AF30A040B150BA8016A
:1025F0009701280F391F4A1F5B1FF601058404C08D
:1026000056954795379527950A94D2F721873287B3
:1026100043875487253FFFE03F07F0E04F07F0E096
:102620005F0710F48CE006C0255F3F4F40405040EC
:1026300028F480E1F601878B81E010C08091BB0314
:102640009091BC03A091BD03B091BE03F601828FAF
:10265000938FA48FB58F80E2EECF80E0DF91CF9192
:102660001F910F91FF90EF90DF90CF90BF90AF90B0
:102670009F908F9008954F925F926F927F928F926A
:102680009F92AF92BF92CF92DF92EF92FF920F9301
:102690001F93CF93DF93EC016A017B01280139017D
:1026A000423051056105710508F46FC089859A852E
:1026B000AB85BC850196A11DB11D84179507A607A2
:1026C000B70708F462C02B893C894D895E898F89E0
:1026D000803129F499278F2D7E2D6D2D09C0C701DA
:1026E000B60117E096958795779567951A95D1F776
:1026F0004B015C01820E931EA41EB51E8091DC016D
:102700009091DD01A091DE01B091DF01881699065C
:10271000AA06BB0639F0C501B40140E00E94BB1116
:10272000882399F18F89803149F4F601F070EE0F1A
:10273000FF1FE157FC4F518240820DC0F601EF7739
:10274000F070EE0FFF1FEE0FFF1FE157FC4F4082AE
:10275000518262827382809191058160809391059C
:102760008A89823080F08D819E81AF81B885880E04
:10277000991EAA1EBB1E8092920590929305A0926C
:102780009405B092950581E001C080E0DF91CF9182
:102790001F910F91FF90EF90DF90CF90BF90AF907F
:1027A0009F908F907F906F905F904F900895CF9201
:1027B000DF92EF92FF920F931F93CF93DF93EC0181
:1027C0007A018B01690189859A85AB85BC85019663
:1027D000A11DB11D84179507A607B70708F450C0BF
:1027E0002B893C894D895E898F89803129F499270D
:1027F000812F702F6F2D09C0C801B701E7E09695B2
:10280000879577956795EA95D1F7260F371F481F6B
:10281000591F8091DC019091DD01A091DE01B09102
:10282000DF01281739074A075B0739F0CA01B901E8
:1028300040E00E94BB11882319F18F89803159F43F
:10284000F701F070EE0FFF1FE157FC4F808191817F
:10285000A0E0B0E00EC0F701EF77F070EE0FFF1FC1
:10286000EE0FFF1FE157FC4F80819181A281B38160
:10287000BF70F60180839183A283B38381E001C09E
:1028800080E0DF91CF911F910F91FF90EF90DF904B
:10289000CF900895AF92BF92CF92DF92EF92FF92C6
:1028A0000F931F93DF93CF9300D000D0CDB7DEB747
:1028B0006C017A018B0182E090E0A0E0B0E0F601CB
:1028C00080839183A283B3835E010894A11CB11C11
:1028D000C601B801A70195010E94D713882319F1F9
:1028E000C601B801A70100E010E020E030E00E943E
:1028F0003B138823C1F0E980FA800B811C81F6012B
:102900008789803129F088EF9FEFAFEFBFE004C0E7
:1029100088EF9FEFA0E0B0E0E816F9060A071B0772
:10292000B8F281E001C080E00F900F900F900F90FF
:10293000CF91DF911F910F91FF90EF90DF90CF909B
:10294000BF90AF9008954F925F926F927F928F9257
:102950009F92AF92BF92CF92DF92EF92FF920F932E
:102960001F93DF93CF9300D000D0CDB7DEB76C01BB
:1029700049835A836B837C833901EE24FF248701CA
:102980002E010894411C511C812CA2E09A2EA12CEE
:10299000B12C49815A816B817C81C60192010E94D0
:1029A000D713882351F1D501C401F601058404C071
:1029B000880F991FAA1FBB1F0A94D2F7E80EF91EB1
:1029C0000A1F1B1F29813A814B815C8187898031D5
:1029D00029F088EF9FEFAFEFBFE004C088EF9FEFD3
:1029E000A0E0B0E0281739074A075B0790F2F3012F
:1029F000E082F1820283138381E00F900F900F90A9
:102A00000F90CF91DF911F910F91FF90EF90DF908A
:102A1000CF90BF90AF909F908F907F906F905F907E
:102A20004F9008952F923F924F925F926F927F92B4
:102A30008F929F92AF92BF92CF92DF92EF92FF92CE
:102A40000F931F93DF93CF93CDB7DEB72F970FB6BA
:102A5000F894DEBF0FBECDBF1C014A875B876C8731
:102A60007D873F872E87D9010D911D912D913C9136
:102A7000011511052105310549F048015901089456
:102A8000811C911CA11CB11C198610C0FC01808006
:102A90009180A280B38019868A859B85AC85BD858F
:102AA0000197A105B10511F491E09987D10119961B
:102AB0008D919D910D90BC91A02D0196A11DB11DF0
:102AC0008D839E83AF83B8877501640144245524A8
:102AD00032018E010F5F1F4FF10181859285A38521
:102AE000B485481659066A067B0608F090C08D81A9
:102AF0009E81AF81B8858C159D05AE05BF0550F44C
:102B000082E0882E912CA12CB12CB2E0CB2ED12CBE
:102B1000E12CF12CC101B701A60198010E94D71345
:102B2000882309F474C089819A81AB81BC81A70193
:102B300096012F5F3F4F4F4F5F4F0097A105B105A3
:102B400019F049015A010DC0281939094A095B09D0
:102B50008A859B85AC85BD85281739074A075B07A1
:102B600059F00894411C511C611C711C0894C11C33
:102B7000D11CE11CF11CB0CFC101A601B7010FEFC0
:102B80001FEF2FEF3FE00E943B13882399F43FC0D3
:102B90002601370108944108510861087108C101F4
:102BA000B301A201970186010E943B13882379F1AA
:102BB000730162018C149D04AE04BF0448F3AE851A
:102BC000BF854D915D916D917C91411551056105D8
:102BD000710539F0C101950184010E943B138823DE
:102BE000B1F0EE85FF8580829182A282B382F98561
:102BF000FF2359F00894811C911CA11CB11CD10128
:102C00008D929D92AD92BC92139781E001C080E0BD
:102C10002F960FB6F894DEBF0FBECDBFCF91DF91D8
:102C20001F910F91FF90EF90DF90CF90BF90AF90EA
:102C30009F908F907F906F905F904F903F902F90DC
:102C40000895CF93DF93EC01DB0180E090E020E278
:102C5000FD01E80FF91F208301968B309105C1F724
:102C600057E040E021C02E3219F088E690E007C01E
:102C70005A3019F15AE048E017C03217F1F0FC0160
:102C8000019634913323C9F75417B8F02132A8F0D4
:102C90002F3798F4822F81568A3108F42052FD0193
:102CA000E40FF11D20834F5F29912223E1F690E08C
:102CB0008C91803219F091E001C090E0892FDF9172
:102CC000CF9108956F927F928F929F92AF92BF9211
:102CD000CF92DF92EF92FF920F931F93CF93DF93E8
:102CE000EC017A018B012D81222309F480C08B89AC
:102CF0009C89AD89BE8984179507A607B70708F494
:102D000076C085C0E114F1040105110549F41E8265
:102D10001F82188619861A861B861C861D8665C02A
:102D20002A853B854C855D85EB8DFC8D858590E006
:102D30000996215030404040504039014A01082E48
:102D400004C096948794779467940A94D2F72F5F7F
:102D50003F4F4F4F5F4F0894E108F10801091109F7
:102D60005701680104C0D694C794B794A7948A9574
:102D7000D2F70894E11CF11C011D111DA614B70423
:102D8000C804D90428F0211531054105510549F43D
:102D90008F89988DA98DBA8D8E839F83A887B987D7
:102DA00016C0A618B708C808D90811C04E815F819F
:102DB000688579858B8D9C8D94010E94D71308942A
:102DC000A108B108C108D108882331F410C086E0F9
:102DD000882E912C8C0E9D1EA114B104C104D10427
:102DE00029F7EA86FB860C871D8781E001C080E019
:102DF000DF91CF911F910F91FF90EF90DF90CF90D7
:102E0000BF90AF909F908F907F906F9008952230E9
:102E100009F078CFE6CFCF93DF93EC01462F6E8594
:102E20007F85888999890E94BB11882319F420E045
:102E300030E00AC08A89282F30E095E0220F331F46
:102E40009A95E1F721573C4FC901DF91CF91089541
:102E50000F931F93CF93DF938C01FC01858188230F
:102E6000D9F1848187FF35C0C80161E00E940B174A
:102E7000EC01009789F1F8018581823040F4838963
:102E80009489A589B6898C8F9D8FAE8FBF8FF801ED
:102E90008789908D9B8F8A8F8789908DA18DB28D28
:102EA000CD01AA27BB279D8B8C8BE0919605F091D5
:102EB0009705309751F0BE016A5E7F4FCE0148966C
:102EC0000995888D998D9B8B8A8BF80184818F77EA
:102ED00084830E945C1101C080E0DF91CF911F913B
:102EE0000F910895CF93DF93EC010E942817882358
:102EF00011F01D8281E0DF91CF9108956F927F9252
:102F00008F929F92AF92BF92CF92DF92EF92FF92F9
:102F10000F931F93DF93CF9300D000D0CDB7DEB7D0
:102F20007C015A016B01DC0115968C91159781305B
:102F300009F08FC014968C9181FF8BC09EC00097C2
:102F4000A105B10511F481E085C0F70162847384A5
:102F500084849584C701B601A5010E946216882366
:102F600009F477C0D7015B968D919C915C97A11471
:102F7000B104C104D10489F457964D915D916D91CE
:102F80007C915A970E944A14882309F462C0F70181
:102F9000178A108E118E128E3DC0D70116964D9154
:102FA0005D916D917C9119979E012F5F3F4F0E941B
:102FB000D713882309F44DC0D7015B96ED91FC919E
:102FC0005C9749815A816B817C818789803129F0A6
:102FD00088EF9FEFAFEFBFE004C088EF9FEFA0E066
:102FE000B0E0481759076A077B07A0F4CF010E9499
:102FF0004A14882371F1F7014681578160857185F4
:10300000838D948D0FEF1FEF2FEF3FE00E943B1356
:103010008823F9F0D7015396AD92BD92CD92DC9200
:10302000569714968C911497806814968C93C701C8
:103030000E942817882369F0B601A5016A147B0451
:103040008C049D0410F4B401A301C7010E94621610
:1030500001C080E00F900F900F900F90CF91DF9103
:103060001F910F91FF90EF90DF90CF90BF90AF90A6
:103070009F908F907F906F900895F7018389948936
:10308000A589B68984179507A607B70708F057CF13
:10309000E0CF2F923F924F925F926F927F928F92EA
:1030A0009F92AF92BF92CF92DF92EF92FF920F93D7
:1030B0001F93CF93DF93EC012A018D81882309F4BC
:1030C000C6C08C8180FFC3C0D8C025014E185F08E0
:1030D0004B0176E0272E312C2C0E3D1E3201B1C063
:1030E0002A853B854C855D856FEFA62E61E0B62E67
:1030F000A222B3228D8179018A0199E01695079564
:10310000F794E7949A95D1F7EB8DFC8D823049F4D2
:10311000428D538D648D758D4E0D5F1D601F711F27
:103120003FC0D480DA94DE20A114B104D9F4DD20AC
:10313000C9F4211531054105510549F48F89988D50
:10314000A98DBA8D8E839F83A887B9870BC04E81C6
:103150005F8168857985CF0191010E94D71388230B
:1031600009F475C0EB8DFC8D4E815F816885798592
:103170004250504060407040058404C0440F551FC9
:10318000661F771F0A94D2F786859785A089B18933
:10319000480F591F6A1F7B1F4D0D511D611D711D69
:1031A00080E092E08A199B0963018615970508F46F
:1031B0006C018C8186FD06C080E0C81682E0D806CE
:1031C00009F073C08091DC019091DD01A091DE01D6
:1031D000B091DF01481759076A077B0709F465C0FA
:1031E00080918F05909190059501860174010E9450
:1031F000DC0F882361F18C0C9D1C12C095012157B6
:103200003C4FA9014C0D5D1DD401F90102C0819113
:103210008D93E417F507D9F7E21BF30B8E0E9F1E73
:10322000960140E050E08A859B85AC85BD85820F84
:10323000931FA41FB51F8A879B87AC87BD876C1817
:103240007D086114710409F04BCFA20102C04FEF59
:103250005FEFCA01DF91CF911F910F91FF90EF9027
:10326000DF90CF90BF90AF909F908F907F906F90A6
:103270005F904F903F902F900895AB88BC88CD8889
:10328000DE88EA84FB840C851D859A0140E050E0CD
:10329000D601C5018E199F09A00BB10B82179307A8
:1032A000A407B50708F411CF13CFCB01BA0140E052
:1032B0000E94BB11882309F0A1CFC9CFCF92DF9222
:1032C000EF92FF920F931F93DF93CF930F92CDB79F
:1032D000DEB76C01FC018581823070F0E284F384FA
:1032E00004851585C601BE016F5F7F4F41E050E048
:1032F0000E944918019769F020E030E0C9010F9061
:10330000CF91DF911F910F91FF90EF90DF90CF90C1
:103310000895F60182859385A485B5854F96A11DF4
:10332000B11D82879387A487B587F5E01695079529
:10333000F794E794FA95D1F78E2D8F70282F30E00F
:10334000E5E0220F331FEA95E1F721573C4FD6CF36
:103350000F931F93CF93DF93EC018B018D81882313
:1033600009F041C0FB0187898031B1F482E08D838F
:103370001F8A188E198E1A8E808D918DA0E0B0E074
:1033800045E0880F991FAA1FBB1F4A95D1F78B8B69
:103390009C8BAD8BBE8B15C0803229F583E08D836D
:1033A000FB01428D538D648D758D4F8B588F698FC6
:1033B0007A8F9E012D5E3F4FC8010E94A31488237F
:1033C00091F01C8F0B8F81E08C831E821F821886E8
:1033D00019861A861B861C861D861E861F86188ADD
:1033E000198A1A8A01C080E0DF91CF911F910F9155
:1033F00008951F93CF93DF93EC01142FE62FF0E095
:1034000075E0EE0FFF1F7A95E1F7E157FC4F8385DA
:10341000817121F0842F827409F054C06A8B8091ED
:10342000DC019091DD01A091DE01B091DF018E877A
:103430009F87A88BB98B84899589A0E0B0E0BC01F7
:1034400055274427828D938DA0E0B0E0482B592B5F
:103450006A2B7B2B4F8B588F698F7A8F838590E0F7
:1034600088719070009751F4848D958DA68DB78DDD
:103470008B8B9C8BAD8BBE8B81E00CC0409711F584
:103480009E012D5E3F4F8B8D9C8D0E94A31488233F
:10349000C9F084E08D83812F8F708C831E821F8200
:1034A000188619861A861B861C861D8616FD02C084
:1034B00081E009C0CE0140E050E060E070E00E9491
:1034C0007E1701C080E0DF91CF911F910895CF93C7
:1034D000DF93EC019C012A5F3F4F8B8D9C8D41E077
:1034E00050E060E070E00E9412158823A1F08F89FF
:1034F000988DA98DBA8D0097A105B10559F48E81DB
:103500009F81A885B9858F8B988FA98FBA8F8C8161
:1035100080688C8381E0DF91CF9108952F923F9254
:103520004F925F927F928F929F92AF92BF92CF9273
:10353000DF92EF92FF920F931F93DF93CF9300D010
:1035400000D000D0CDB7DEB76C01162F072F5E83F9
:103550004D83DC0115968C911597813009F070C16F
:1035600014968C9181FF6CC18EC1F60143895489F8
:103570006589768982859385A485B58584179507A5
:10358000A607B70731F0C6010E946216882309F426
:1035900057C1812F902F9C0129012D803E8017C19A
:1035A000D6015B96ED91FC915C97DA01C90119E0B7
:1035B000B695A795979587951A95D1F774807A94C3
:1035C00078227FEF872E71E0972E82229322772038
:1035D00009F04EC08114910409F04AC0D601169634
:1035E0004D915D916D917C91199741155105610542
:1035F000710581F457968D919D910D90BC91A02DF0
:103600000097A105B10549F1F60186839783A0874C
:10361000B1872EC0CF019E012F5F3F4F0E94D7136D
:10362000882309F414C129813A814B815C81D60138
:103630005B96ED91FC915C978789803129F088EF4A
:103640009FEFAFEFBFE004C088EF9FEFA0E0B0E0D6
:10365000281739074A075B0730F0C6010E94671A2E
:10366000882331F4EDC0F6012683378340875187E4
:1036700080E092E08819990951018215930508F4B8
:103680005C01D6015B96ED91FC915C971696ED90EE
:10369000FD900D911C9119978EEF9FEFAFEFBFEF4B
:1036A000E80EF91E0A1F1B1F058404C0EE0CFF1C48
:1036B000001F111F0A94D2F786859785A089B189CA
:1036C000E80EF91E0A1F1B1FE70CF11C011D111D3E
:1036D00090E0A91692E0B90651F58091DC01909135
:1036E000DD01A091DE01B091DF018E159F05A007DD
:1036F000B10761F48FEF9FEFAFEFBFEF8093DC0175
:103700009093DD01A093DE01B093DF0180918F05DE
:1037100090919005B801A70192010E947F0F882324
:1037200009F48EC0A0E0B2E04A0E5B1E3EC08114D8
:10373000910409F5F60122853385448555858389F1
:103740009489A589B689281739074A075B0798F035
:103750000E945C11882309F473C0E092DC01F092AE
:10376000DD010093DE011093DF01809191058160FE
:103770008093910508C0C801B70141E00E94BB11C8
:10378000882309F45DC0940121573C4FA9014A0DDB
:103790005B1DD201F90102C08D918193E417F507F9
:1037A000D9F7E21BF30B4E0E5F1E2A183B0895015A
:1037B00040E050E0F60182859385A485B585820FAF
:1037C000931FA41FB51F82879387A487B587D6014F
:1037D0001A962D913D914D915C911D9721143104C4
:1037E00009F0DECE53968D919D910D90BC91A02D48
:1037F00082179307A407B50748F4F601238B348B8F
:10380000458B568B84818068848311C08091960596
:1038100090919705892B59F08D819E81892B39F0E4
:10382000D60114968C911497806814968C93F601A7
:10383000848183FF0EC0C6010E942817882349F4A3
:1038400081E090E0D60113969C938E9312971E828E
:103850001D828D819E8126960FB6F894DEBF0FBE25
:10386000CDBFCF91DF911F910F91FF90EF90DF902F
:10387000CF90BF90AF909F908F907F905F904F9030
:103880003F902F90089582FD70CE83CEDF93CF932B
:103890000F92CDB7DEB76983BE016F5F7F4F41E006
:1038A00050E00E948E1A0F90CF91DF910895DF9221
:1038B000EF92FF920F931F93CF93DF93EC010E943F
:1038C000671A882309F44EC0EB8DFC8DEE80FF80D3
:1038D000088519858EEF9FEFAFEFBFEFE80EF91E59
:1038E0000A1F1B1F058404C0EE0CFF1C001F111FC4
:1038F0000A94D2F786859785A089B189E80EF91ECA
:103900000A1F1B1FD4800894E108F108010911095E
:103910000BC0C801B7016D0D711D811D911D0E9465
:1039200097118823F9F0DA94DD2099F7EB8DFC8D5F
:1039300020E032E040E050E0058404C0220F331F55
:10394000441F551F0A94D2F78B899C89AD89BE8983
:10395000820F931FA41FB51F8B8B9C8BAD8BBE8BCF
:1039600081E001C080E0DF91CF911F910F91FF9026
:10397000EF90DF9008956F927F928F929F92AF9217
:10398000BF92CF92DF92EF92FF920F931F93DF933C
:10399000CF93CDB7DEB72B970FB6F894DEBF0FBE2F
:1039A000CDBF5C016B01822EDC0115968C918823C2
:1039B00009F0D2C0CA018E010F5F1F4FB8010E94EB
:1039C0002116882309F4C8C0F601838D948DD50192
:1039D0005C969C938E935B97168217821086118655
:1039E000D6011A961D921D921D921C921D97992424
:1039F000380141C0C6010E945E19FC01009709F41C
:103A0000ABC085E016950795F794E7948A95D1F7B2
:103A10001E2D1F708081882311F0853ED1F49920DE
:103A200091F4D50152961C9352972091DC0130916C
:103A3000DD014091DE015091DF011E962D933D93F3
:103A40004D935C9351978081882399F499249394A2
:103A500021C0C301BF014BE050E00E9498000097D5
:103A600051F4882D8073803309F476C0C501612F2D
:103A70006FC099249394F601E284F384048515853C
:103A800083899489A589B689E816F9060A071B0770
:103A900008F4B0CF882D8271823109F05DC0992081
:103AA00041F0C50161E00E940B178C01009789F479
:103AB00053C0D60115968C91823009F44DC0C601D1
:103AC0000E94571C882309F447C0F501128A0FE8A9
:103AD00013E080E2D8011D928A95E9F7D801FE0132
:103AE00031968BE001900D928150E1F7E0919605BF
:103AF000F0919705309739F0B801625F7F4FC801A8
:103B00004096099509C081E298E2F801918B808B7B
:103B100080E098E097878687D80150968D919C9198
:103B2000519753969C938E93529759969C938E934C
:103B300058971E968D919C911F9757969C938E93A4
:103B400056970E945C11882339F0C501F5016289FE
:103B5000482D0E94F91901C080E02B960FB6F89409
:103B6000DEBF0FBECDBFCF91DF911F910F91FF90B0
:103B7000EF90DF90CF90BF90AF909F908F907F900D
:103B80006F900895982F8E3008F09E509770809116
:103B9000E0018295880F880F807C892B80937C00C0
:103BA00080917A00806480937A0080917A0086FD0B
:103BB000FCCF2091780040917900942F80E030E094
:103BC000282B392BC90108951F920F920FB60F921F
:103BD00011242F933F938F939F93AF93BF93809123
:103BE0009C0590919D05A0919E05B0919F053091F7
:103BF000A0050196A11DB11D232F2D5F2D3720F0AB
:103C00002D570196A11DB11D2093A00580939C0501
:103C100090939D05A0939E05B0939F058091980574
:103C200090919905A0919A05B0919B050196A11DCF
:103C3000B11D8093980590939905A0939A05B09330
:103C40009B05BF91AF919F918F913F912F910F90C5
:103C50000FBE0F901F9018958FB7F89420919C0578
:103C600030919D0540919E0550919F058FBFB901F0
:103C7000CA0108959FB7F89420919805309199054D
:103C800040919A0550919B0586B5A89B06C08F3F31
:103C900021F02F5F3F4F4F4F5F4F9FBF542F432F58
:103CA000322F2227280F311D411D511D82E0220F86
:103CB000331F441F551F8A95D1F7B901CA010895D2
:103CC0009B01AC017FB7F89480919805909199057C
:103CD000A0919A05B0919B0566B5A89B05C06F3F62
:103CE00019F00196A11DB11D7FBFBA2FA92F982FE2
:103CF0008827860F911DA11DB11D62E0880F991FB5
:103D0000AA1FBB1F6A95D1F7BC012DC0FFB7F8945D
:103D10008091980590919905A0919A05B0919B0585
:103D2000E6B5A89B05C0EF3F19F00196A11DB11D96
:103D3000FFBFBA2FA92F982F88278E0F911DA11D85
:103D4000B11DE2E0880F991FAA1FBB1FEA95D1F7AA
:103D5000861B970B885E9340C8F22150304040404C
:103D6000504068517C4F211531054105510571F6D0
:103D70000895019739F0880F991F880F991F0297AE
:103D80000197F1F70895789484B5826084BD84B575
:103D9000816084BD85B5826085BD85B5816085BD46
:103DA000EEE6F0E0808181608083E1E8F0E010825F
:103DB000808182608083808181608083E0E8F0E0A0
:103DC000808181608083E1EBF0E08081846080838A
:103DD000E0EBF0E0808181608083EAE7F0E08081C1
:103DE0008460808380818260808380818160808321
:103DF0008081806880831092C1000895CF93DF9303
:103E0000482F50E0CA0186559F4FFC0134914A5615
:103E10005F4FFA018491882369F190E0880F991F20
:103E2000FC01E858FF4FA591B491FC01EE57FF4FFC
:103E3000C591D491662351F42FB7F8948C91932FA8
:103E4000909589238C93888189230BC0623061F41B
:103E50002FB7F8948C91932F909589238C93888118
:103E6000832B88832FBF06C09FB7F8948C91832B38
:103E70008C939FBFDF91CF910895482F50E0CA01E6
:103E800082549F4FFC012491CA0186559F4FFC012B
:103E900094914A565F4FFA013491332309F440C09C
:103EA000222351F1233071F0243028F42130A1F085
:103EB000223011F514C02630B1F02730C1F0243083
:103EC000D9F404C0809180008F7703C08091800076
:103ED0008F7D8093800010C084B58F7702C084B539
:103EE0008F7D84BD09C08091B0008F7703C0809121
:103EF000B0008F7D8093B000E32FF0E0EE0FFF1F46
:103F0000EE57FF4FA591B4912FB7F894662321F493
:103F10008C919095892302C08C91892B8C932FBF13
:103F20000895682F70E0CB0182549F4FFC012491CB
:103F3000CB0186559F4FFC0144916A567F4FFB0190
:103F40009491992319F420E030E03CC0222351F1F0
:103F5000233071F0243028F42130A1F0223011F503
:103F600014C02630B1F02730C1F02430D9F404C099
:103F7000809180008F7703C0809180008F7D809337
:103F8000800010C084B58F7702C084B58F7D84BD5A
:103F900009C08091B0008F7703C08091B0008F7D01
:103FA0008093B000892F90E0880F991F84579F4F0E
:103FB000FC01A591B4918C9120E030E0842311F0B4
:103FC00021E030E0C90108950F931F93CF93DF9351
:103FD000BC018230910510F462E070E0E0914D0682
:103FE000F0914E06A0E0B0E040E050E024C08081B7
:103FF000918186179707D0F08617970771F4828111
:104000009381109729F013969C938E9312972CC04E
:1040100090934E0680934D0627C04115510519F027
:104020008417950718F4EF018D01AC01DF0182813F
:1040300093819C01F9013097D1F641155105F9F0B2
:10404000CA01861B970B8430910580F48A819B817D
:104050000115110521F0F8019383828304C0909328
:104060004E0680934D06FE01329645C0FE01E80FD4
:10407000F91F619371930297998388833CC0809163
:104080004B0690914C06892B41F48091E30190916D
:10409000E40190934C0680934B064091E5015091CA
:1040A000E6014115510541F44DB75EB78091E1013C
:1040B0009091E201481B590B20914B0630914C0620
:1040C00024173507B0F4CA01821B930B8617970794
:1040D00080F0AB014E5F5F4F8417950750F0420FA1
:1040E000531F50934C0640934B06F9016193719313
:1040F00002C0E0E0F0E0CF01DF91CF911F910F917E
:104100000895CF93DF939C01009709F48FC0EC01D1
:1041100022971B821A8260914D0670914E0661159E
:10412000710581F488819981820F931F20914B063C
:1041300030914C062817390739F5D0934C06C093B7
:104140004B0674C0DB0140E050E0AC17BD0708F13E
:10415000BB83AA83FE0121913191E20FF31FAE17B9
:10416000BF0779F48D919C911197280F391F2E5F0D
:104170003F4F3983288312968D919C9113979B838F
:104180008A834115510571F4D0934E06C0934D06B4
:104190004DC012968D919C911397AD01009711F02F
:1041A000DC01D3CFDA011396DC93CE931297FA0198
:1041B00021913191E20FF31FCE17DF0769F4888157
:1041C0009981280F391F2E5F3F4FFA0131832083D9
:1041D0008A819B8193838283E0E0F0E0DB01129689
:1041E0008D919C911397009719F0BC01FD01F6CFBA
:1041F000AB014E5F5F4FDB018D919C91840F951F4A
:1042000020914B0630914C062817390779F43097E6
:1042100029F410924E0610924D0602C013821282AB
:104220004250504050934C0640934B06DF91CF9143
:1042300008952F923F924F925F926F927F928F924A
:104240009F92AF92BF92CF92DF92EF92FF920F9325
:104250001F93DF93CF93CDB7DEB73B014C0119011C
:104260002A016D897E898F89988D6A197B098C094D
:104270009D09621A730A840A950AA40193010E9497
:10428000752AE218F30804091509A80197010E948C
:10429000CA2A2A0D3B1D4C1D5D1DB901CA01CF91D3
:1042A000DF911F910F91FF90EF90DF90CF90BF9023
:1042B000AF909F908F907F906F905F904F903F90C6
:1042C0002F900895CF93DF930E94C31E0E94B304E2
:1042D000C7E6D4E20E94C3012097E1F30E9467245D
:1042E000F9CFCF92DF92EF92FF920F931F93CF936C
:1042F000DF937C016B018A01C0E0D0E00FC0D601E2
:104300006D916D01D701ED91FC910190F081E02D4F
:10431000C7010995C80FD91F01501040011511059B
:1043200071F7CE01DF91CF911F910F91FF90EF9028
:10433000DF90CF900895DC01ED91FC910190F08128
:10434000E02D09950895EF92FF920F931F938C0132
:10435000DC01ED91FC910190F081E02D6DE009957B
:104360007C01D801ED91FC910190F081E02DC80114
:104370006AE009959C012E0D3F1DC9011F910F9107
:10438000FF90EF900895CF93DF93EC0161157105D5
:1043900019F420E030E00FC0DB010D900020E9F7B8
:1043A0001197A61BB70BE881F9810280F381E02DFC
:1043B000AD0109959C01C901DF91CF9108954F92FC
:1043C0005F927F928F929F92AF92BF92CF92DF9235
:1043D000EF92FF920F931F93DF93CF93CDB7DEB78A
:1043E000A1970FB6F894DEBF0FBECDBF2C01742E7F
:1043F000CB01223008F42AE019A231E2C32ED12CDD
:10440000CC0EDD1E822E9924AA24BB24672D752F85
:10441000A50194010E94A82A79018A01C801B70167
:10442000A50194010E94752A472D461B0894C108D6
:10443000D1084A3014F4405D01C0495CF601408364
:10444000E114F1040105110521F07E2C5F2DC80156
:10445000DDCFC201B6010E94C321A1960FB6F89428
:10446000DEBF0FBECDBFCF91DF911F910F91FF90A7
:10447000EF90DF90CF90BF90AF909F908F907F9004
:104480005F904F900895DC012115310541F4ED91C5
:10449000FC910190F081E02D642F099508950E9410
:1044A000DF210895EF92FF920F931F939A017B01F2
:1044B00000E010E0B801A7010E9443221F910F9174
:1044C000FF90EF900895EF92FF920F931F939A0140
:1044D000E62EFF2400E010E0B801A7010E9443226D
:1044E0001F910F91FF90EF900895CF92DF92EF927E
:1044F000FF920F931F93CF93DF93EC016A017B012F
:104500002115310541F4E881F9810190F081E02D18
:10451000642F09951FC02A303105D1F477FF17C0E9
:10452000E881F9810190F081E02D6DE209958C011F
:1045300044275527BA014C195D096E097F09CE0140
:104540002AE00E94DF219801280F391F04C02AE0C9
:104550000E94DF219C01C901DF91CF911F910F9132
:10456000FF90EF90DF90CF900895EF92FF920F931E
:104570001F937B019A010027F7FC0095102FB801CB
:10458000A7010E9475221F910F91FF90EF9008954F
:10459000CF92DF92EF92FF920F931F936C017B01FA
:1045A0009A010027F7FC0095102FB801A7010E947F
:1045B00075228C01C6010E94A321080F191FC80192
:1045C0001F910F91FF90EF90DF90CF9008950E9480
:1045D000C32108957F928F929F92AF92BF92CF9204
:1045E000DF92EF92FF920F931F93CF93DF934C01D3
:1045F0007A018B01722ECB01BA01A80197010E94AA
:10460000712A882321F0C4016CEC71E021C0C0E064
:10461000D0E057016801E894D7F8C601B5012FEF43
:104620003FEF4FE75FE70E94712A882351F4C601EC
:10463000B5012FEF3FEF4FE75FE70E94BB28181649
:1046400014F0C1E0D0E0219739F0C40160ED71E0D1
:104650000E94C321EC0193C0C801B7012FEF3FEFC7
:104660004FE75FE40E940A2A181654F0C801B70108
:104670002FEF3FEF4FE75FEC0E94BB28882324F425
:10468000C40164ED71E0E4CFC801B70120E030E07F
:1046900040E050E00E94BB2887FD03C0C0E0D0E0AE
:1046A0000EC0D401ED91FC910190F081E02DC40188
:1046B0006DE20995EC0117FB109517F9109520E0B4
:1046C00030E040E05FE3DD240BC0CA01B90120E027
:1046D00030E040E251E40E94BF289B01AC01D3943A
:1046E000D71498F3C801B7010E9457285B016C01E9
:1046F0000E942C297B018C01C401B801A7012AE08A
:1047000030E00E944322C80FD91F772039F0C4013E
:1047100068ED71E00E94C321C80FD91FC801B7011D
:104720000E9458299B01AC01C601B5010E94562880
:1047300024C020E030E040E251E40E940E2A7B01D8
:104740008C010E9427295B016C01CC24B7FCC0942A
:10475000DC2CC401B601A5012AE030E00E947522DC
:10476000C80FD91FC601B5010E945A299B01AC018F
:10477000C801B7010E9456287A947720D1F6CE015D
:10478000DF91CF911F910F91FF90EF90DF90CF902D
:10479000BF90AF909F908F907F9008950E94EA22E3
:1047A0000895EF92FF920F931F937C010E94C32103
:1047B0008C01C7010E94A321080F191FC8011F9176
:1047C0000F91FF90EF900895AF92BF92CF92DF923A
:1047D000EF92FF920F931F93CF93DF935C016B01D6
:1047E000EE24FF24C0E0D0E010C0D501ED91FC9193
:1047F00000811181C601BE010E944926682FC501B2
:10480000F8010995E80EF91E2196F601848195813B
:10481000C817D90750F3C701DF91CF911F910F91AE
:10482000FF90EF90DF90CF90BF90AF900895EF9200
:10483000FF920F931F937C010E94E4238C01C70118
:104840000E94A3219C01200F311FC9011F910F91CC
:10485000FF90EF90089508951F920F920FB60F9258
:1048600011242F933F934F938F939F93EF93FF9335
:104870008091C00082FD1DC04091C6002091E105DD
:104880003091E2052F5F3F4F2F7330708091E30529
:104890009091E4052817390771F0E091E105F09156
:1048A000E205EF55FA4F40833093E2052093E1058E
:1048B00002C08091C600FF91EF919F918F914F911F
:1048C0003F912F910F900FBE0F901F901895E09180
:1048D0003506F0913606E05CFF4F81919191208181
:1048E0003181821B930B8F739070892B11F00E9482
:1048F0002B2408951F920F920FB60F9211242F931D
:104900003F938F939F93EF93FF93209125063091D0
:10491000260680912706909128062817390731F43A
:104920008091C1008F7D8093C10014C0E091270663
:10493000F0912806EB51FA4F208180912706909143
:10494000280601968F73907090932806809327060F
:104950002093C600FF91EF919F918F913F912F91EE
:104960000F900FBE0F901F901895AF92BF92DF92DD
:10497000EF92FF920F931F93CF93DF93EC017A0195
:104980008B01DD24403081EE580780E0680780E02D
:10499000780711F0DD24D39491E0A92EB12CEC8995
:1049A000FD89DD2069F0C50108A002C0880F991FAC
:1049B0000A94E2F7808360E079E08DE390E005C03F
:1049C000108260E874E88EE190E0A80197010E94EF
:1049D000A82A215030404040504056954795379581
:1049E000279580E12030380720F0DD2011F0DD240C
:1049F000D6CFE889F9893083EA89FB89208319A217
:104A0000EE89FF89408121E030E0C9010C8C02C0B1
:104A1000880F991F0A94E2F7482B4083EE89FF899B
:104A20004081C9010D8C02C0880F991F0A94E2F7DA
:104A3000482B4083EE89FF894081C9010E8C02C05A
:104A4000880F991F0A94E2F7482B4083EE89FF896B
:104A500080810F8C02C0220F331F0A94E2F7209549
:104A600028232083DF91CF911F910F91FF90EF902A
:104A7000DF90BF90AF900895DC011C96ED91FC9102
:104A80001D97E05CFF4F2191319180819181281B1E
:104A9000390B2F733070C9010895DC011C96ED911C
:104AA000FC911D97E05CFF4F20813181E054F04084
:104AB000DF01AE5BBF4F8D919C911197281739078D
:104AC00019F42FEF3FEF07C08D919C91E80FF91F6C
:104AD0008081282F30E0C9010895DC011C96ED91FA
:104AE000FC911D97E05CFF4F20813181E054F04044
:104AF000DF01AE5BBF4F8D919C911197281739074D
:104B000019F42FEF3FEF10C08D919C911197E80F92
:104B1000F91F20818D919C91119701968F73907050
:104B200011969C938E9330E0C9010895DC01919613
:104B30008C919197882339F05496ED91FC9155977B
:104B4000808186FFF9CF91961C920895CF93DF93D1
:104B5000EC01EE85FF85E05CFF4F20813181E05460
:104B6000F0402F5F3F4F2F733070DF01AE5BBF4FC0
:104B70008D919C91119728173907D1F3E05CFF4F75
:104B800080819181E054F040E80FF91F6083EE8549
:104B9000FF85E05CFF4F31832083EE89FF89208110
:104BA00081E090E00F8C02C0880F991F0A94E2F711
:104BB000282B208381E089A3EC89FD898081806492
:104BC000808381E090E0DF91CF91089510922C06D0
:104BD00010922B0688EE93E0A0E0B0E080932D06C3
:104BE00090932E06A0932F06B093300683E192E0B7
:104BF00090932A068093290681EA95E090933606E1
:104C00008093350685EE95E09093380680933706BD
:104C100085EC90E090933A068093390684EC90E01E
:104C200090933C0680933B0680EC90E090933E0688
:104C300080933D0681EC90E09093400680933F0680
:104C400082EC90E0909342068093410686EC90E0DF
:104C5000909344068093430684E08093450683E066
:104C60008093460687E08093470685E08093480658
:104C700081E0809349060895FC018481958168173D
:104C8000790730F40190F081E02DE60FF71F4083A3
:104C90000895FC01848195816817790748F4019093
:104CA000F081E02D309721F0E60FF71F8081089505
:104CB00080E008950F931F93CF93DF93EC018B0156
:104CC0006F5F7F4F888199810E947527009711F44B
:104CD00080E005C0998388831B830A8381E0DF918C
:104CE000CF911F910F910895CF93DF93EC018881AD
:104CF0009981892B29F08A819B818617970760F417
:104D0000CE010E945A26882341F08C819D81892BF7
:104D100019F4E881F981108281E0DF91CF91089543
:104D2000EF92FF920F931F93CF93DF93EC017B01E0
:104D30006C817D81E114F104C1F04115510599F0B8
:104D40008A01060F171FB8010E947426882369F094
:104D5000888199812C813D81820F931FB7010E9428
:104D6000B9001D830C8381E001C080E0DF91CF9109
:104D70001F910F91FF90EF900895DF93CF9300D094
:104D8000CDB7DEB769831A82BE016F5F7F4F41E006
:104D900050E00E9490260F900F90CF91DF910895E0
:104DA000FB0160817181448155810E9490260895A4
:104DB000CF93DF93EC0188819981009711F00E94D5
:104DC0008120198218821D821C821B821A82DF9127
:104DD000CF910895EF92FF920F931F93CF93DF939C
:104DE000EC017B018A01BA010E947426882321F418
:104DF000CE010E94D82607C01D830C83888199812B
:104E0000B7010E94B900CE01DF91CF911F910F91A0
:104E1000FF90EF900895CF93DF93EC0119821882F1
:104E20001B821A821D821C821E826115710551F03F
:104E3000DB010D900020E9F71197A61BB70BAD0120
:104E40000E94EA26DF91CF9108950F931F93182FA8
:104E5000092F6115710559F0DB010D900020E9F76C
:104E60001197A61BB70BAD010E94EA2602C00E9453
:104E7000D826812F902F1F910F910895EF92FF92C6
:104E80000F931F93DF93CF93CDB7DEB761970FB624
:104E9000F894DEBF0FBECDBF8C01CB01F8011182AB
:104EA0001082138212821582148216827E01089467
:104EB000E11CF11CB70150E00E94CF00C801B7010E
:104EC0000E94252761960FB6F894DEBF0FBECDBFB6
:104ED000CF91DF911F910F91FF90EF900895FC010A
:104EE000808191810E94812008956F927F928F929C
:104EF0009F92AF92BF92CF92DF92EF92FF920F9369
:104F00001F93CF93DF938C01009729F4CB010E946C
:104F1000E41F8C01BBC08EEFE82E8FEFF82EE00E61
:104F2000F11E4801860E971E8E149F0408F4ACC033
:104F3000D7014D915C91119746175707B8F045304E
:104F4000510508F4A3C0CA0104978617970708F40F
:104F50009DC042505040461B570BF4014193519362
:104F60006D937C93CF010E94812090C05B01A41AB5
:104F7000B50A3801640E751EA0914D06B0914E061B
:104F8000CC24DD24E0E0F0E047C0A615B705A9F584
:104F9000CD91DC911197CE0102968A159B0568F19F
:104FA000CE018A199B09029612962C91129713969C
:104FB0003C91059758F0F40122833383CA19DB0929
:104FC000D183C083D7016D937C9309C04E5F5F4F3F
:104FD0004C0F5D1FF70151834083C901FC01C114CF
:104FE000D10431F0D6011396FC93EE9312974EC084
:104FF000F0934E06E0934D0649C08D919C91119718
:10500000E817F90708F4FC016D0112968C911297CC
:1050100013969C919C01D901109709F0B6CF80910D
:105020004B0690914C0686159705E9F4E617F707AD
:10503000D0F42091E5013091E6012115310541F4CC
:105040002DB73EB78091E1019091E201281B390B09
:1050500082169306C8F490924C0680924B06F70194
:105060007183608313C0CB010E94E41FEC010097A1
:1050700059F0D7014D915C91B8010E94A500C8017B
:105080000E9481208E0102C000E010E0C801DF9183
:10509000CF911F910F91FF90EF90DF90CF90BF9035
:1050A000AF909F908F907F906F9008955058BB273E
:1050B000AA270ED075C166D130F06BD120F031F443
:1050C0009F3F11F41EF45BC10EF4E095E7FB51C164
:1050D000E92F77D180F3BA17620773078407950722
:1050E00018F071F49EF58FC10EF4E0950B2EBA2FD7
:1050F000A02D0B01B90190010C01CA01A0011124DE
:10510000FF27591B99F0593F50F4503E68F11A1689
:10511000F040A22F232F342F4427585FF3CF46951A
:1051200037952795A795F0405395C9F77EF41F163C
:10513000BA0B620B730B840BBAF09150A1F0FF0F06
:10514000BB1F661F771F881FC2F70EC0BA0F621FF2
:10515000731F841F48F4879577956795B795F795E2
:105160009E3F08F0B3CF9395880F08F09927EE0F74
:10517000979587950895D9D008F481E008950CD0CB
:105180000FC107D140F0FED030F021F45F3F19F09D
:10519000F0C0511139C1F3C014D198F39923C9F368
:1051A0005523B1F3951B550BBB27AA27621773072D
:1051B000840738F09F5F5F4F220F331F441FAA1FE1
:1051C000A9F333D00E2E3AF0E0E830D091505040A1
:1051D000E695001CCAF729D0FE2F27D0660F771F4F
:1051E000881FBB1F261737074807AB07B0E809F031
:1051F000BB0B802DBF01FF2793585F4F2AF09E3FC6
:10520000510568F0B6C000C15F3FECF3983EDCF397
:10521000869577956795B795F7959F5FC9F7880F3E
:10522000911D9695879597F90895E1E0660F771F90
:10523000881FBB1F621773078407BA0720F0621B21
:10524000730B840BBA0BEE1F88F7E095089504D01A
:105250006894B111D9C00895BCD088F09F5790F0E0
:10526000B92F9927B751A0F0D1F0660F771F881F8B
:10527000991F1AF0BA95C9F712C0B13081F0C3D0A6
:10528000B1E00895C0C0672F782F8827B85F39F044
:10529000B93FCCF3869577956795B395D9F73EF4EA
:1052A00090958095709561957F4F8F4F9F4F089592
:1052B000E89409C097FB3EF49095809570956195B0
:1052C0007F4F8F4F9F4F9923A9F0F92F96E9BB2766
:1052D0009395F695879577956795B795F111F8CFE2
:1052E000FAF4BB0F11F460FF1BC06F5F7F4F8F4F4D
:1052F0009F4F16C0882311F096E911C0772321F043
:105300009EE8872F762F05C0662371F096E8862FDA
:1053100070E060E02AF09A95660F771F881FDAF731
:10532000880F9695879597F90895990F0008550F5E
:10533000AA0BE0E8FEEF16161706E807F907C0F01B
:1053400012161306E407F50798F0621B730B840B23
:10535000950B39F40A2661F0232B242B252B21F4FD
:1053600008950A2609F4A140A6958FEF811D811D9D
:10537000089597F99F6780E870E060E008959FEFD7
:1053800080EC089500240A941616170618060906DC
:10539000089500240A9412161306140605060895AB
:1053A000092E0394000C11F4882352F0BB0F40F433
:1053B000BF2B11F460FF04C06F5F7F4F8F4F9F4F73
:1053C000089557FD9058440F551F59F05F3F71F0F5
:1053D0004795880F97FB991F61F09F3F79F087955C
:1053E0000895121613061406551FF2CF4695F1DFE5
:1053F00008C0161617061806991FF1CF8695710575
:10540000610508940895E894BB2766277727CB01A8
:1054100097F908958ADF08F48FEF08950BD0C0CF75
:10542000B1DF28F0B6DF18F0952309F0A2CFA7CF9F
:105430001124EACFC6DFA0F3959FD1F3950F50E07A
:10544000551F629FF001729FBB27F00DB11D639F36
:10545000AA27F00DB11DAA1F649F6627B00DA11DDC
:10546000661F829F2227B00DA11D621F739FB00D82
:10547000A11D621F839FA00D611D221F749F3327F2
:10548000A00D611D231F849F600D211D822F762F8B
:105490006A2F11249F5750408AF0E1F088234AF088
:1054A000EE0FFF1FBB1F661F771F881F91505040D4
:1054B000A9F79E3F510570F05CCFA6CF5F3FECF39C
:1054C000983EDCF3869577956795B795F795E795C0
:1054D0009F5FC1F7FE2B880F911D9695879597F9D1
:1054E000089523DF880B990B0895629FD001739F65
:1054F000F001829FE00DF11D649FE00DF11D929F70
:10550000F00D839FF00D749FF00D659FF00D9927AE
:10551000729FB00DE11DF91F639FB00DE11DF91FD2
:10552000BD01CF0111240895AA1BBB1B51E107C087
:10553000AA1FBB1FA617B70710F0A61BB70B881F23
:10554000991F5A95A9F780959095BC01CD010895B2
:10555000A1E21A2EAA1BBB1BFD010DC0AA1FBB1F77
:10556000EE1FFF1FA217B307E407F50720F0A21BE9
:10557000B30BE40BF50B661F771F881F991F1A9456
:1055800069F760957095809590959B01AC01BD0180
:10559000CF01089597FB092E05260ED057FD04D0A4
:1055A000D7DF0AD0001C38F45095409530952195EE
:1055B0003F4F4F4F5F4F0895F6F790958095709548
:1055C00061957F4F8F4F9F4F0895EE0FFF1F0590FE
:1055D000F491E02D099410E0CAEDD0E004C0FE0182
:1055E0000E94E72A2296CC3DD107C9F7F894FFCF55
:1055F0005254433A004572726F7220004F4B2000A4
:1056000044485431313A00436865636B73756D20CB
:105610006572726F72200054696D65206F75742019
:105620006572726F722000556E6B6E6F776E2065BB
:1056300072726F72200054696D653A002048756D72
:105640003A002054656D703A00205261696E3A004C
:1056500020536F696C3A00204C696768743A000007
:10566000444154412E43535600446F6E65004E6FC3
:105670007420446F6E6500696E697469616C697A43
:105680006174696F6E206661696C65642100696E82
:10569000697469616C697A6174696F6E20646F6E98
:1056A000652E00437265617465642046696C653AD5
:1056B00020444154412E435356002F006E616E002A
:1056C000696E66006F7666002E002300FFFFFFFF05
:1056D0000180004F06000000000000C90698062067
:1056E0000629063E064F06000000003C0DF90D5449
:1056F0000D9F0DBD0D970D00000000461C7121008F
:10570000000000A62571213C256D254D259625001C
:00000001FF
